{
  "contractName": "RockPaperScissors",
  "abi": [
    {
      "inputs": [],
      "stateMutability": "payable",
      "type": "constructor"
    },
    {
      "inputs": [
        {
          "internalType": "uint256",
          "name": "maxBalance",
          "type": "uint256"
        }
      ],
      "name": "maxBetBalance",
      "type": "error"
    },
    {
      "anonymous": false,
      "inputs": [
        {
          "indexed": false,
          "internalType": "int8",
          "name": "result",
          "type": "int8"
        },
        {
          "indexed": false,
          "internalType": "uint256",
          "name": "fundBalance",
          "type": "uint256"
        }
      ],
      "name": "playResult",
      "type": "event"
    },
    {
      "inputs": [],
      "name": "isOwner",
      "outputs": [
        {
          "internalType": "bool",
          "name": "",
          "type": "bool"
        }
      ],
      "stateMutability": "view",
      "type": "function"
    },
    {
      "inputs": [
        {
          "internalType": "uint256",
          "name": "rps_num",
          "type": "uint256"
        }
      ],
      "name": "play",
      "outputs": [],
      "stateMutability": "payable",
      "type": "function"
    },
    {
      "inputs": [
        {
          "internalType": "uint256",
          "name": "amount",
          "type": "uint256"
        }
      ],
      "name": "withdraw",
      "outputs": [],
      "stateMutability": "nonpayable",
      "type": "function"
    }
  ],
  "bytecode": "0x60806040526000600155336000806101000a81548173ffffffffffffffffffffffffffffffffffffffff021916908373ffffffffffffffffffffffffffffffffffffffff16021790555061092b806100586000396000f3fe6080604052600436106100345760003560e01c80632e1a7d4d146100395780636898f82b146100625780638f32d59b1461007e575b600080fd5b34801561004557600080fd5b50610060600480360381019061005b9190610471565b6100a9565b005b61007c60048036038101906100779190610471565b610146565b005b34801561008a57600080fd5b50610093610338565b6040516100a09190610568565b60405180910390f35b6100b1610338565b6100ba57600080fd5b8047116100fc576040517f08c379a00000000000000000000000000000000000000000000000000000000081526004016100f3906105d5565b60405180910390fd5b3373ffffffffffffffffffffffffffffffffffffffff166108fc829081150290604051600060405180830381858888f19350505050158015610142573d6000803e3d6000fd5b5050565b60023461015391906106a8565b4710156101a3576002476101679190610677565b6040517f463dfee900000000000000000000000000000000000000000000000000000000815260040161019a91906105f5565b60405180910390fd5b60006101ad61038f565b905060006101bb83836103de565b905060008160000b141561024e577f185edc0a1d691d9eae5f0e7d4bacca9d3edecd48b0e15f3142f7faa1f6796ff281346040516101fa9291906105ac565b60405180910390a13373ffffffffffffffffffffffffffffffffffffffff166108fc349081150290604051600060405180830381858888f19350505050158015610248573d6000803e3d6000fd5b50610333565b60018160000b14156102f7577f185edc0a1d691d9eae5f0e7d4bacca9d3edecd48b0e15f3142f7faa1f6796ff28160023461028991906106a8565b6040516102979291906105ac565b60405180910390a13373ffffffffffffffffffffffffffffffffffffffff166108fc6002346102c691906106a8565b9081150290604051600060405180830381858888f193505050501580156102f1573d6000803e3d6000fd5b50610332565b7f185edc0a1d691d9eae5f0e7d4bacca9d3edecd48b0e15f3142f7faa1f6796ff2816000604051610329929190610583565b60405180910390a15b5b505050565b60008060009054906101000a900473ffffffffffffffffffffffffffffffffffffffff1673ffffffffffffffffffffffffffffffffffffffff163373ffffffffffffffffffffffffffffffffffffffff1614905090565b6000600160008154809291906103a49061079d565b919050555042336001546040516020016103c09392919061052b565b6040516020818303038152906040528051906020012060001c905090565b60006003826103ed9190610814565b8314156103fd5760009050610456565b600060038484600261040f9190610621565b6104199190610702565b6104239190610814565b14156104325760019050610456565b7fffffffffffffffffffffffffffffffffffffffffffffffffffffffffffffffff90505b92915050565b60008135905061046b816108de565b92915050565b600060208284031215610487576104866108a3565b5b60006104958482850161045c565b91505092915050565b6104af6104aa82610736565b6107e6565b82525050565b6104be81610748565b82525050565b6104cd81610754565b82525050565b6104dc8161078b565b82525050565b60006104ef601583610610565b91506104fa826108b5565b602082019050919050565b61050e81610781565b82525050565b61052561052082610781565b61080a565b82525050565b60006105378286610514565b602082019150610547828561049e565b6014820191506105578284610514565b602082019150819050949350505050565b600060208201905061057d60008301846104b5565b92915050565b600060408201905061059860008301856104c4565b6105a560208301846104d3565b9392505050565b60006040820190506105c160008301856104c4565b6105ce6020830184610505565b9392505050565b600060208201905081810360008301526105ee816104e2565b9050919050565b600060208201905061060a6000830184610505565b92915050565b600082825260208201905092915050565b600061062c82610781565b915061063783610781565b9250827fffffffffffffffffffffffffffffffffffffffffffffffffffffffffffffffff0382111561066c5761066b610845565b5b828201905092915050565b600061068282610781565b915061068d83610781565b92508261069d5761069c610874565b5b828204905092915050565b60006106b382610781565b91506106be83610781565b9250817fffffffffffffffffffffffffffffffffffffffffffffffffffffffffffffffff04831182151516156106f7576106f6610845565b5b828202905092915050565b600061070d82610781565b915061071883610781565b92508282101561072b5761072a610845565b5b828203905092915050565b600061074182610761565b9050919050565b60008115159050919050565b60008160000b9050919050565b600073ffffffffffffffffffffffffffffffffffffffff82169050919050565b6000819050919050565b600061079682610781565b9050919050565b60006107a882610781565b91507fffffffffffffffffffffffffffffffffffffffffffffffffffffffffffffffff8214156107db576107da610845565b5b600182019050919050565b60006107f1826107f8565b9050919050565b6000610803826108a8565b9050919050565b6000819050919050565b600061081f82610781565b915061082a83610781565b92508261083a57610839610874565b5b828206905092915050565b7f4e487b7100000000000000000000000000000000000000000000000000000000600052601160045260246000fd5b7f4e487b7100000000000000000000000000000000000000000000000000000000600052601260045260246000fd5b600080fd5b60008160601b9050919050565b7f42616c616e6365206973206e6f7420656e6f7567680000000000000000000000600082015250565b6108e781610781565b81146108f257600080fd5b5056fea2646970667358221220d78ca20f18a8839ceb3c39328c35a72a1c4f0fcacd244b39e34fa699506bb66d64736f6c63430008070033",
  "immutableReferences": {},
  "source": "// SPDX-License-Identifier: MIT\r\npragma solidity ^0.8.7;\r\n\r\ncontract RockPaperScissors {\r\n\r\n    address private owner;\r\n\r\n    uint private randNonce = 0;\r\n\r\n    event playResult(int8 result, uint fundBalance);\r\n    error maxBetBalance(uint maxBalance);\r\n\r\n    modifier onlyOwner() {\r\n        require(isOwner());\r\n        _;\r\n    }\r\n\r\n    function isOwner() public view returns(bool) {\r\n        return msg.sender == owner;\r\n    }\r\n\r\n    constructor() payable {\r\n        owner = msg.sender;\r\n    }\r\n\r\n    ///This function compares rps of sender and rps number of owner\r\n    ///Here, first param is 0 or 1 or 2 (that is, RPS) and second param is any number that it's modula 3 will be 0,1,2(RPS)\r\n    function compareRPS(uint _rps, uint _rpsNum) internal pure returns(int8) {\r\n        if(_rps == _rpsNum % 3)\r\n            return 0;\r\n        else if((2 + _rpsNum - _rps) % 3 == 0)\r\n            return 1;\r\n        return -1;\r\n    }\r\n\r\n    function randomNumber() internal returns(uint) {\r\n        randNonce++;\r\n        return uint(keccak256(abi.encodePacked(block.timestamp, msg.sender, randNonce)));\r\n    }\r\n\r\n    function play(uint rps_num) public payable {\r\n        if(address(this).balance < msg.value * 2)\r\n            revert maxBetBalance(address(this).balance / 2);\r\n        \r\n        uint _targetRPSNum = randomNumber();\r\n        int8 _result = compareRPS(rps_num, _targetRPSNum);\r\n        \r\n        if(_result == 0){\r\n            emit playResult(_result, msg.value);\r\n            payable(msg.sender).transfer(msg.value);\r\n        } else if(_result == 1){\r\n            emit playResult(_result, msg.value * 2);\r\n            payable(msg.sender).transfer(msg.value * 2);\r\n        }else {\r\n            emit playResult(_result, 0);\r\n        }\r\n    }\r\n\r\n    function withdraw(uint amount) external onlyOwner {\r\n        require(address(this).balance > amount, \"Balance is not enough\");\r\n        payable(msg.sender).transfer(amount);\r\n    }\r\n}",
  "sourcePath": "F:\\2021\\blockchain\\rock-paper-scissors\\Rock-Paper-Scissors\\contracts\\RockPaperScissors.sol",
  "compiler": {
    "name": "solc",
    "version": "0.8.7+commit.e28d00a7.Emscripten.clang"
  },
  "schemaVersion": "3.4.3",
  "updatedAt": "2021-09-14T18:54:26.151Z",
  "devdoc": {
    "kind": "dev",
    "methods": {},
    "version": 1
  },
  "userdoc": {
    "kind": "user",
    "methods": {},
    "version": 1
  }
}